:02000002D0002C
:1040000000400D0024520D00000006000C000501C8
:084010000401DB0700000000C1
:04401800E84F0D0060
:10401C0009480A49884208B505D0094A824202D0AB
:10402C00121A00F099FF0748074A0021121A00F0F3
:10403C00A1FF014808BD00BFC8E5032084510D0055
:10404C0040E6032040E60320F0E7032070B5074E5E
:10405C00074C00F08FFEA41BA4080025A54200D13C
:10406C0070BD56F8043B98470135F7E758510D00E1
:10407C0078510D0000F014B808B500F067F8BDE8F1
:10408C00084000F039BE00F055BA00F05BBA007879
:10409C00B0FA80F0400970470123037070470000AC
:1040AC0008B5064B0121188800F0D4FE044B012101
:1040BC001888BDE8084000F0CDBE00BFC8E503205D
:1040CC00CCE5032038B50E4D0E4C2888012100F0AC
:1040DC00D2FE2088012100F0CEFE4FF47A7000F061
:1040EC0041FA2888002100F0C6FE2088002100F04B
:1040FC00C2FEBDE838404FF4FA7000F033BA00BF8E
:10410C00C8E50320CCE5032038B50E4D0E4C2888AD
:10411C00012100F0B0FE2088012100F0ACFE4FF42C
:10412C00967000F01FFA2888002100F0A4FE208869
:10413C00002100F0A0FEBDE838404FF4FA7000F00A
:10414C0011BA00BFC8E50320CCE5032038B5364DC5
:10415C00002415F8013B202B60D0613BDAB2192A00
:10416C002AD8192B28D8DFE803F0460D14363F194E
:10417C003B1C111F4434233D213942160F254B495A
:10418C00534E5156FFF79EFFFFF7BEFFFFF7BCFFE4
:10419C002AE0FFF797FFFFF7B7FF23E0FFF7B4FF25
:1041AC00F9E7FFF7B1FFEFE7FFF7AEFFFFF78AFF85
:1041BC00FFF788FFFFF786FF4FF4FA70013400F029
:1041CC00D1F9082CC5D1BDE8384041F2883000F057
:1041DC00C9B9FFF799FFFFF775FFD7E7FFF794FF12
:1041EC00FFF770FFFFF76EFFFFF78EFFE4E7FFF7B7
:1041FC0069FFFFF767FFFFF787FFDBE7FFF784FF38
:10420C00FFF782FFF7E7FFF75DFFF9E7FFF75AFFCC
:10421C00FFF77AFFCCE7FFF755FFDCE74FF47A7036
:10422C0000F0A0F9C8E700BFD0E5032008B5024BA9
:10423C001B685B6C019308BD4802030008B5024B78
:10424C001B689B6C019308BD4802030008B5024B28
:10425C001B685B68019308BD1802030008B5024B8C
:10426C001B685B69019308BD1802030008B5024B7B
:10427C001B689B68019308BD2C02030008B5024B18
:10428C001B68DB68019308BD2C02030008B5024BC8
:10429C001B681B69019308BD2C02030008B5024B77
:1042AC001B681B6A019308BD2802030008B5024B6A
:1042BC001B685B6A019308BD2802030008B5024B1A
:1042CC001B689B6A019308BD2802030008B5024BCA
:1042DC001B68DB6A019308BD2802030008B5024B7A
:1042EC001B681B6B019308BD2802030008B5024B29
:1042FC001B685B6B019308BD2802030008B5024BD9
:10430C001B681B6C019308BD2802030008B5024B07
:10431C001B685B69019308BD6402030008B5024B7E
:10432C001B689B68019308BD6802030008B5024B2B
:10433C001B68DB68019308BD6802030008B5024BDB
:10434C001B68DB69019308BD3002030008B5024B02
:10435C001B681B6A019308BD3002030008B5024BB1
:10436C001B681B68019308BD3C02030008B5024B97
:10437C001B68DB68019308BD3C02030008B5024BC7
:10438C001B681B69019308BD3C02030008B5024B76
:10439C001B685B69019308BD3C02030008B5024B26
:1043AC001B689B69019308BD3C02030008B5024BD6
:1043BC001B68DB69019308BD3C02030008B5024B86
:1043CC001B681B6A019308BD3C02030008B5024B35
:1043DC001B689B6A019308BD3C02030008B5024BA5
:1043EC001B681B68019308BD4C02030008B5024B07
:1043FC001B681B69019308BD4C02030008B5024BF6
:10440C001B685B69019308BD4C02030008B5024BA5
:10441C001B689B69019308BD4C02030008B5024B55
:10442C001B68DB69019308BD4C02030008B5024B05
:10443C001B681B6A019308BD4C02030008B5024BB4
:10444C001B685B68019308BD2002030008B5024B92
:10445C001B685B69019308BD2002030008B5034B80
:10446C001B68D3F88830019308BD000020020300BC
:10447C0008B5034B1B68D3F89430019308BD0000BA
:10448C002002030008B5024B1B68DB6B019308BDCF
:10449C004402030008B5024B1B685B68019308BD1E
:1044AC004002030008B5024B1B689B68019308BDD2
:1044BC004002030008B5024B1B68DB68019308BD82
:1044CC004002030008B5024B1B681B69019308BD31
:1044DC004002030008B5024B1B685B69019308BDE1
:1044EC004002030008B5024B1B689B69019308BD91
:1044FC004002030008B5024B1B68DB69019308BD41
:10450C004002030008B5024B1B681B6A019308BDEF
:10451C004002030008B5024B1B681B6B019308BDDE
:10452C004002030008B5024B1B685B6B019308BD8E
:10453C004002030008B5024B1B681B68019308BDC1
:10454C001C02030008B5024B1B685B68019308BD95
:10455C001C02030008B5024B1B685B6C019308BD81
:10456C001C0203000021FFF771BF10B50446006860
:10457C0008B1FFF763FE204610BD000010B5064CD5
:10458C00002320462360FFF751FE2046034A0449CE
:10459C00BDE8104000F0C8BC44E6032040E6032010
:1045AC0077450D0010B58368044613B1032201460C
:1045BC009847204610BD002240681146FFF7A2BF65
:1045CC00002240681146FFF7ADBF40680022FFF79C
:1045DC00A1BF4068002281F00101FFF78BBF0023CF
:1045EC0040681A461946FFF77DBF002340681A46FB
:1045FC001946FFF76FBF002240681146FFF762BFF4
:10460C00002240681146FFF74DBF4068002202218E
:10461C00FFF750BF002340681A46FFF73BBF00006E
:10462C00024B03225A60024A1A60704748E6032084
:10463C0004500D007047F8B5064615460C468F1809
:10464C00BC4206D0336814F8011B9B68304698476F
:10465C00F6E72846F8BD007C0022FFF71FBE007C61
:10466C000021FFF723BE007C0021FFF727BE007C52
:10467C000021FFF72BBE007C0021FFF72FBE10B5E9
:10468C001421044600F055FC204610BD10B54FF423
:10469C007A73044608460021C4E90113034B2360D6
:1046AC0020741146FFF72AFE204610BD38500D002D
:1046BC00704710B51821044600F03BFC204610BD95
:1046CC00F0B5037D062B8DB00E4600F104074FF0BC
:1046DC00000412D000F1080515F8011D0A2230461D
:1046EC0000F033F9AF42044419D0002CF4D02E2141
:1046FC00304600F027F90444EEE72F236A4639468A
:10470C000A208DF80040FFF701FE684600F05EFCC1
:10471C0033680246DB6869463046984704462046B3
:10472C000DB0F0BD10B5054B0446112240F8043B0A
:10473C00002100F01FFC204610BD00BF60500D0092
:10474C000346074A10B543F8042B01F1100251F847
:10475C00044B43F8044B9142F9D10A781A7010BDFE
:10476C0060500D0010B59DF8084044EA032343EA5D
:10477C00024242EA016104234160037510BD13B586
:10478C00CB7800938B784A780978FFF7EBFF02B06F
:10479C0010BD0000014B024A1A60704750E603201E
:1047AC006C500D00002340681A46FFF773BE40683A
:1047BC0000220221FFF77EBE002240681146FFF75F
:1047CC0071BE002240681146FFF77CBE0023406892
:1047DC001A461946FFF77EBE002340681A46194652
:1047EC00FFF780BE4068002281F00101FFF782BE16
:1047FC0040680022FFF78EBE002240681146FFF78A
:10480C0091BE002240681146FFF77CBE2DE9F043B3
:10481C00002495B016460D460746FFF783FF214648
:10482C0018220EA8009400F0A5FB4023CDE90C340F
:10483C0021466B460CAA3046FFF778FD044600284B
:10484C0046D1024601216868FFF73CFE02218046F2
:10485C0022466868FFF736FE009E81462146002EF0
:10486C0036D0002934D17368022B03D00A2B0BD01D
:10487C00F669F4E7B8F1000F04D0716938460431D9
:10488C00FFF77DFF4146F3E7B9F1000F01D149462F
:10489C00EEE77469102201A800F06CFB06238DF87A
:1048AC00143001AD04F108031834186859682A460D
:1048BC0003C20833A3421546F7D101A906A807ADD8
:1048CC00FFF73EFF0FCD3C1D0FC42B682370DEE7B6
:1048DC000098FFF723FD384615B0BDE8F0830000C3
:1048EC00024B034A1A6000225A60704754E60320B8
:1048FC0078500D00F8B506460D468F180024BD42C1
:10490C000CD0336815F8011B9B6830469847031E82
:10491C0001DB1C44F3E7002C08BF1C462046F8BD05
:10492C0013B50446084659B1019100F04FFB2368BA
:10493C000199DB680246204602B0BDE810401847DA
:10494C0002B010BD03689B68184730B58BB00023CC
:10495C008DF82430012A98BF0A2209AC0D46B1FB10
:10496C00F2F101FB125303F0FF03092B94BF303318
:10497C003733DBB2AA4204F8013DEFD92146FFF7E9
:10498C00CFFF0BB030BD10B50446FFF70BFE204631
:10499C0010BD00000348044A04490023836000F062
:1049AC00C3BA00BF5CE6032040E6032093490D0028
:1049BC0010B5044608462170FFF7C0FC0023636065
:1049CC00204610BD10B50446006818B1FFF7BAFDBB
:1049DC000023236010BD10B50446FFF7F3FF2046FB
:1049EC0010BD000010B5094B094C022200201A60C2
:1049FC00084B2060A080A071A360FFF71FFD20462C
:104A0C00054A0649BDE8104000F08EBA78E603204E
:104A1C006CE603200000FFFF40E60320E3490D0095
:104A2C00024B1A68024B1A60704700BFD8E503208E
:104A3C007CE6032070474174704708B5007CFFF793
:104A4C00C5FC20EAE07008BD08B5007CFFF796FCB9
:104A5C0020EAE07008BD08B5007CFFF79FFC40EA37
:104A6C00E07008BD08B5007CFFF790FC40EAE070F0
:104A7C0008BD007CFFF79ABC37B5457C04462DB1C8
:104A8C00207C03B0BDE83040FFF770BC007C019186
:104A9C00FFF79CFC00280199F2DC284603B030BDDE
:104AAC0010B51421044600F044FA204610BD000055
:104ABC0010B54FF0000C0446084611464FF47A72BC
:104ACC00C4E901C2044A22600122207462741A46AD
:104ADC00FFF744FC204610BDC8500D0013B50E4C1A
:104AEC002178BFF35B8F11F0010112D120460191A7
:104AFC00FFF7CDFA019960B1084A094B0948FFF755
:104B0C00D7FF2046FFF7C8FA074A0849054800F0C6
:104B1C000BFA044802B010BD80E6032084E60320A3
:104B2C0008E703208CE7032040E60320414A0D00F0
:104B3C0041747047704708B50021007CFFF766FC94
:104B4C0040EAE07008BD08B50121007CFFF75EFC6F
:104B5C0040EAE07008BD08B5007CFFF74FFC20EA86
:104B6C00E07008BD08B5007CFFF740FC20EAE0705F
:104B7C0008BD13B50446007C0191FFF73FFC0028EB
:104B8C00019901DC607C20B1207CFFF747FC20EA16
:104B9C00E07002B010BD007CFFF748BC10B51421CA
:104BAC00044600F0C6F9204610BD000010B54FF4C5
:104BBC007A73044608460021C4E90113044B2360B0
:104BCC000123207463741146FFF708FC204610BDC6
:104BDC00F8500D0010B514220446002100F0CAF95B
:104BEC00204610BD10B5104C88B003A8FFF7F2FF9B
:104BFC002178BFF35B8F11F0010111D12046019197
:104C0C00FFF745FA019958B103AA0848FFF7CEFF00
:104C1C002046FFF741FA064A0649044800F084F999
:104C2C00024808B010BD00BFA0E70320A4E7032092
:104C3C0040E60320414B0D00002240681146FFF76F
:104C4C0041BC002240681146FFF75CBC0022406862
:104C5C001146FFF767BC40680022FFF75BBC406859
:104C6C00002281F00101FFF745BC002340681A4681
:104C7C001946FFF737BC002340681A461946FFF760
:104C8C0029BC002240681146FFF70CBC406800228A
:104C9C000221FFF70FBC002340681A46FFF7FABB4E
:104CAC00024B04225A60024A1A607047B8E703208C
:104CBC0028510D00014B1860704700BFDCE5032044
:104CCC0008B50B4B43B1FFF78DFF03681B69984781
:104CDC00002801DDAFF30080064B43B1FFF7FEFE69
:104CEC0003681B699847002801DDAFF3008008BDFD
:104CFC00000000000000000008B5FFF7E1FFFFF71F
:104D0C00ADFA014B186008BDD4E703200248034AF2
:104D1C000349121A00F020B900F4032004F4032014
:104D2C0080510D0007B5002300931A466FF07701F0
:104D3C00FFF79EFB03B05DF804FB000007B543884A
:104D4C000A2B08D0502B0BD1094B1B684BB103B06D
:104D5C005DF804EB1847FFF7E5FF03B05DF804FBC3
:104D6C00002300931A466FF07701FFF781FBF4E7FD
:104D7C00C4E7032038B5124C1248134D0021FFF73D
:104D8C00E9FB2368AB42114B0CBF012200221A70C5
:104D9C0002D0FFF7BBFF2560FFF758FA044600F07E
:104DAC00F1F80B4B13B12046AFF3008000210848FB
:104DBC00FFF768FBBDE8384006480021FFF74EBB03
:104DCC0000F40320C14C0D001E1C279AC0E70320E1
:104DDC0000000000494D0D00232813B502D9002016
:104DEC0002B010BDA0F10B03022B1AD8174C21787E
:104DFC00BFF35B8F11F001010BD120460191FFF73E
:104E0C0046F9019928B11248FFF7D2FD2046FFF769
:104E1C0043F90F4B1878FFF799FA0028DFD10120DE
:104E2C00DEE7012809D800F057F80021007CFFF7D5
:104E3C005DFA80F00100C0B2D2E709380128EED843
:104E4C00FFF74CFE007CFFF7B9FAF2E7C8E7032046
:104E5C00CCE70320232838B504460D460AD8FF2991
:104E6C0008D0FFF7B9FF28B129462046BDE83840E5
:104E7C00FFF7FCB938BD38B504460D46FFF7FEF90F
:104E8C00FF2810D0062804D84D2323FA00F0C307BE
:104E9C0009D42046FFF7A0FF28B129462046BDE8DB
:104EAC003840FFF7F3B938BD38B5002320254380CF
:104EBC00142304460380856005610649284600F0EA
:104ECC003AF804496060284600F035F8E060204666
:104EDC0038BD00BF54510D0030B50F4D2978BFF3CC
:104EEC005B8F11F0010487B013D12846FFF7CFF880
:104EFC0078B101A8FFF7D8FF01AA21460748FFF7B0
:104F0C00C5FB2846FFF7C8F8054A0649034800F0D8
:104F1C000BF8024807B030BDD8E70320DCE70320CC
:104F2C0040E6032041460D000B460146184600F0B2
:104F3C0005B8FFF7AAB8FFF7A6B8000010B5054CE6
:104F4C0013462CB10A4601460220AFF3008010BD77
:104F5C002046FCE7000000000A44914200F1FF33B8
:104F6C0000D1704710B511F8014B03F8014F914275
:104F7C00F9D110BD02440346934200D1704703F8A7
:104F8C00011BF9E738B50D4B1D68AB6B04467BB9BB
:104F9C001820FFF7CFFA0A4A0A4BA863C0E900238E
:104FAC00094B83600B23838101220023C0E9042376
:104FBC00AB6B00221C615A6138BD00BFDCE50320DD
:104FCC000E33CDAB34126DE6ECDE0500034613F860
:104FDC00012B002AFBD1181A013870471D400D0017
:104FEC0059400D0081400D0085400D00000000006F
:104FFC00000000000000000021460D0017460D00C7
:10500C000D460D0003460D00F7450D00EB450D0058
:10501C00DF450D00D7450D00CD450D00C3450D00F6
:10502C0019480D00000000000000000041460D0072
:10503C008B460D0063460D0043460D006B460D007C
:10504C0073460D007B460D0083460D0000000000EA
:10505C0000000000CD460D00BD460D00BF460D0002
:10506C00617070000000000000000000B1470D00EE
:10507C00BB470D00C5470D00CF470D00D9470D00AC
:10508C00E5470D00F1470D00FD470D0005480D00EB
:10509C000F480D0019480D0025592D256D2D25643F
:1050AC005425483A254D3A2553257A00617363748B
:1050BC00696D65000000000000000000414A0D0011
:1050CC00AD4A0D00854A0D0001490D00554A0D00F1
:1050DC00714A0D00634A0D007F4A0D00434A0D00D2
:1050EC00474A0D000000000000000000414B0D007D
:1050FC00A94B0D007F4B0D0001490D00714B0D00AC
:10510C00434B0D00534B0D00A34B0D00634B0D0097
:10511C003D4B0D000000000000000000A34C0D00F2
:10512C00994C0D008F4C0D00454C0D00834C0D001F
:10513C00774C0D006B4C0D00634C0D00594C0D0061
:10514C004F4C0D0019480D000000000089450D0062
:10515C002D460D00A1470D00ED480D00A1490D0095
:10516C00F1490D002D4A0D00AD4C0D000000000062
:04517C00000000002F
:04518000000000002B
:105184000600000007000000647576616C64690025
:10519400B8500D00E0E5032000000000000000000E
:1051A40000000000000000000000000000000000FB
:1051B40000000000000000000000000000000000EB
:1051C40000000000000000000000000000000000DB
:1051D40000000000000000000000000000000000CB
:1051E40000000000000000000000000000000000BB
:0851F4000000000000000000B3
:1051FC00FFFFFFFF00000102030405060708090A70
:10520C000B0C0D0E0F101112131415161718191A6A
:08521C001B1C1D1E1F202800B1
:045224007856341272
:04000003D000401CCD
:00000001FF
